S02300004D6F64756C61725F64656C61792028426C696E6B2035204C4544292E7372656314
S11300000C9434000C943E000C943E000C943E007E
S11300100C943E000C943E000C943E000C943E0064
S11300200C943E000C943E000C943E000C943E0054
S11300300C943E000C943E000C943E000C943E0044
S11300400C943E000C943E000C943E000C943E0034
S11300500C943E000C943E000C943E000C943E0024
S11300600C943E000C943E0011241FBECFEFD8E048
S1130070DEBFCDBF0E9464000C948C000C94000081
S113008084B5826084BD89EF87BD16BC85B5816067
S113009085BD85B5826085BD85B3826085BB0895C5
S11300A0CF93DF93EC010E94400006C0A99BFECFD2
S11300B085B3826085BBE9019E0121503109CD2BB6
S11300C0A9F7DF91CF91089584B1826084B984B196
S11300D0846084B984B1886084B984B1806184B94E
S11300E084B1806284B995B182E0892785B995B1DC
S11300F084E0892785B995B188E0892785B995B1C8
S113010080E1892785B995B180E2892785B980ED99
S10F011097E00E945000E7CFF894FFCF66
S9030000FC
