S0180000554152545F48656C6C6F20576F726C642E7372656355
S11300000C9434000C9449000C9449000C9449005D
S11300100C9449000C9449000C9449000C94490038
S11300200C9449000C9449000C9449000C94490028
S11300300C9449000C9449000C9449000C94490018
S11300400C9449000C9449000C9449000C94490008
S11300500C9449000C9449000C9449000C944900F8
S11300600C9449000C94490011241FBECFEFD8E032
S1130070DEBFCDBF11E0A0E0B1E0E4EFF0E002C0EC
S113008005900D92AE30B107D9F70E9468000C9428
S113009078000C940000E1ECF0E0808188608083BB
S11300A0E2ECF0E08081866080831092C50087E6F0
S11300B08093C4000895FC0107C09091C00095FF8F
S11300C0FCCF8093C600319680818111F6CF0895CC
S11300D00E944B0080E091E00E945B002FEF83EDD3
S11300E090E3215080409040E1F700C00000F2CF3F
S10700F0F894FFCFAE
S11100F448656C6C6F20576F726C640A0000D4
S9030000FC
