S01A0000424D503238305F4932432050726F6772616D2E737265637C
S11300000C9434000C9451000C9451000C94510045
S11300100C9451000C9451000C9451000C94510018
S11300200C9451000C9451000C9451000C94510008
S11300300C9451000C9451000C9451000C945100F8
S11300400C9451000C9451000C9451000C945100E8
S11300500C9451000C9451000C9451000C945100D8
S11300600C9451000C94510011241FBECFEFD8E022
S1130070DEBFCDBF11E0A0E0B1E0E4E6FFE002C0E6
S113008005900D92A431B107D9F721E0A4E1B1E0C4
S113009001C01D92A033B207E1F70E941D050C9424
S11300A0B0070C940000CF93DF93C82F0E94B003D5
S11300B08CEE0E94BC038C2F0E94BC030E94B003F0
S11300C08DEE0E94BC030E94C603C82F0E94D00379
S11300D0D82F0E94B80380E09D2F8C2BDF91CF9105
S11300E00895CF93DF93D82FC62F0E94B0038CEED0
S11300F00E94BC038D2F0E94BC038C2F0E94BC0362
S11301000E94B803DF91CF910895CF93C82F0E9426
S1130110B0038CEE0E94BC038C2F0E94BC030E948F
S1130120B0038DEE0E94BC030E94D003C82F0E942E
S1130130B8038C2FCF91089588E80E9453009093C0
S11301401701809316018AE80E94530090931901C5
S1130150809318018CE80E945300909329018093A6
S113016028018EE80E94530090932101809320017E
S113017080E90E94530090931B0180931A0182E945
S11301800E945300909323018093220184E90E94EA
S1130190530090931D0180931C0186E90E94530033
S11301A090931F0180931E0188E90E94530090934D
S11301B02B0180932A018AE90E9453009093150130
S11301C0809314018CE90E9453009093250180933D
S11301D024018EE90E945300909327018093260105
S11301E008952FEF81EE94E0215080409040E1F794
S11301F000C000000E949C0067E284EF0E9471002E
S113020060EA85EF0E9471008FE39CE90197F1F7A2
S113021000C0000008954F925F926F927F928F9278
S11302209F92AF92BF92CF92DF92EF92FF920F9381
S11302301F93CF938AEF0E948500082F8BEF0E94B3
S11302408500C82F8CEF0E948500402F50E060E0AD
S113025070E08A019B010F2EFCE0000F111F221F8A
S1130260331FFA95D1F7F02D4C2F50E060E070E089
S1130270440F551F661F771F440F551F661F771FB6
S1130280440F551F661F771F440F551F661F771FA6
S1130290402B512B622B732B82958F708A019B010B
S11302A0082BC901B8010E9484062B013C0120E0FF
S11302B030E040E858E30E9434074B015C01609150
S11302C016017091170180E090E00E9482066B0194
S11302D07C0120E030E040E85AE30E9434079B01AF
S11302E0AC01C501B4010E9468054B015C01609139
S11302F0180170911901072E000C880B990B0E94AC
S113030084069B01AC01C501B4010E9434074B0172
S11303105C0120E030E040E057E3C301B2010E94F9
S113032034072B013C0120E030E040E059E3C701F1
S1130330B6010E9434079B01AC01C301B2010E94C3
S113034068059B01AC010E9434076B017C0160913C
S1130350280170912901072E000C880B990B0E942B
S113036084069B01AC01C701B6010E9434079B01BE
S1130370AC01C501B4010E9469050E944C0660935A
S11303802C0170932D0180932E0190932F010E94D4
S1130390840620E030E040EA55E40E94DA05CF917B
S11303A01F910F91FF90EF90DF90CF90BF90AF908F
S11303B09F908F907F906F905F904F9008954F9291
S11303C05F926F927F928F929F92AF92BF92CF92E1
S11303D0DF92EF92FF920F931F93CF93DF9300D09E
S11303E000D0CDB7DEB787EF0E948500882E88EF56
S11303F00E948500F82E89EF0E948500482D50E068
S113040060E070E04A015B01072E7CE0880C991CD7
S1130410AA1CBB1C7A95D1F7702D4F2D50E060E0DB
S113042070E0440F551F661F771F440F551F661F4A
S1130430771F440F551F661F771F440F551F661FF4
S1130440771F482959296A297B2982958F708A0147
S11304509B01082BC901B8010E94840669837A8331
S11304608B839C8360912C0170912D0180912E01CE
S113047090912F010E94840620E030E040E05FE389
S11304800E94340720E030E04AE757E40E94680500
S11304906B017C019B01AC010E9434074B015C01A0
S11304A060912A0170912B01072E000C880B990B87
S11304B00E9484069B01AC01C501B4010E9434076B
S11304C020E030E040E058E30E9434074B015C0137
S11304D060911E0170911F01072E000C880B990B6F
S11304E00E9484069B01AC01C701B6010E94340737
S11304F09B01AC010E9469059B01AC01C501B401DB
S11305000E94690520E030E040E85EE30E94340781
S11305104B015C0160911C0170911D01072E000CC0
S1130520880B990B0E94840620E030E040E857E4F1
S11305300E9434079B01AC01C501B4010E94690506
S11305402B013C016091220170912301072E000CC4
S1130550880B990B0E9484069B01AC01C701B6016C
S11305600E9434079B01AC01C701B6010E94340705
S113057020E030E040E056E30E9434074B015C0188
S113058060911A0170911B01072E000C880B990BC6
S11305900E9484069B01AC01C701B6010E94340786
S11305A09B01AC01C501B4010E94690520E030E063
S11305B040E056E30E94340720E030E040E058E396
S11305C00E94340720E030E040E85FE30E946905C0
S11305D06B017C01609120017091210180E090E029
S11305E00E9482069B01AC01C701B6010E94340738
S11305F06B017C0120E030E0A9010E94D50588232D
S113060009F483C029813A814B815C8160E070E008
S113061080E899E40E9468054B015C0120E030E029
S113062040E859E3C301B2010E9434079B01AC01C5
S1130630C501B4010E94680520E030E543EC55E4AF
S11306400E943407A70196010E94DA056B017C0120
S11306506091260170912701072E000C880B990BDD
S11306600E9484069B01AC01C701B6010E943407B5
S11306709B01AC01C701B6010E94340720E030E0C1
S113068040E050E30E9434074B015C016091240177
S113069070912501072E000C880B990B0E9484068B
S11306A09B01AC01C701B6010E94340720E030E091
S11306B040E058E30E9434079B01AC01C501B4013A
S11306C00E9469054B015C01609114017091150150
S11306D0072E000C880B990B0E9484069B01AC0129
S11306E0C501B4010E94690520E030E040E85DE303
S11306F00E9434079B01AC01C701B6010E94690541
S1130700562F472F382F292F04C050E040E030E007
S113071020E0652F742F832F922F0F900F900F904E
S11307200F90DF91CF911F910F91FF90EF90DF9089
S1130730CF90BF90AF909F908F907F906F905F907D
S11307404F900895E9EBF0E080818160808382E13D
S11307508093B800ECEBF0E080818460808308959E
S113076084EA8093BC008091BC008823E4F7089558
S113077084E98093BC0008958093BB0084E880934F
S1130780BC008091BC008823E4F7089584EC809336
S1130790BC008091BC008823E4F78091BB000895DD
S11307A084E88093BC008091BC008823E4F78091A6
S11307B0BB00089585B1886085B985E08A95F1F715
S11307C0000085B1877F85B987EC90E00197F1F748
S11307D000C0000008959BB1937C9BB983FF03C0C4
S11307E09BB194609BB982FF03C09BB198609BB995
S11307F081FF03C09BB190619BB980FF03C08BB1A3
S113080080628BB90E94DA030895CF93C82F6130B8
S113081021F485B1806185B903C085B18F7E85B926
S11308208C2F82958F700E94EB038C2F8F700E9407
S1130830EB03CF910895CF93C82F60E00E94050485
S1130840C150C23030F48FE39FE10197F1F700C04B
S11308500000CF91089561E00E9405040895882363
S113086011F090E401C090E0862F8F70890F8068AA
S11308700E941B040895CF93DF93EC0103C02196DB
S11308800E942B0488818111FACFDF91CF910895C2
S113089081E00E941B04089584B1806184B984B10D
S11308A0886084B98AB18C638AB92FEF89EF90E0AC
S11308B0215080409040E1F700C0000085B18F7E58
S11308C085B985B1877F85B983E00E94EB038FE109
S11308D09EE40197F1F700C0000083E00E94EB035F
S11308E087E592E00197F1F700C0000083E00E94E1
S11308F0EB0387E592E00197F1F700C0000082E086
S11309000E94EB0387E592E00197F1F700C0000035
S113091088E20E941B0488E00E941B0481E00E947C
S11309201B0486E00E941B048CE00E941B040895B3
S1130930CF93DF93EC018A30910568F09C01ADEC14
S1130940BCEC0E94A10796958795969587959695F8
S113095087950E9498049E01ADECBCEC0E94A1070F
S11309609695879596958795969587959C01220FE0
S1130970331F880F991F880F991F880F991F820FA3
S1130980931F9E01281B390BC901805D0E942B0413
S1130990DF91CF9108958F929F92AF92BF92CF92A1
S11309A0DF92EF92FF924B015C0120E030E0A9015D
S11309B00E94D50588233CF48DE20E942B04B7FAEB
S11309C0B094B7F8B094C501B4010E9453066B010A
S11309D07C01CB010E9498048EE20E942B04B60194
S11309E080E090E00E9482069B01AC01C501B40145
S11309F00E94680520E030E048EC52E40E9434078D
S1130A0020E030E040E05FE30E9469050E94530665
S1130A106B017C018AE0C816D10418F480E30E94BB
S1130A202B04C6010E949804FF90EF90DF90CF90B2
S1130A30BF90AF909F908F9008950E94A2030E9450
S1130A404C040E94F1000E94480460E080E00E948F
S1130A502F0480E091E00E943B0460E081E00E946A
S1130A602F0486E091E00E943B040E940B014B019D
S1130A705C010E94DF016B017C0165E080E00E9463
S1130A802F04C501B4010E94CB048FED0E942B04F6
S1130A908CE091E00E943B0465E081E00E942F0419
S1130AA020E030E048EC52E4C701B6010E94DA05C8
S1130AB00E94CB048EE091E00E943B042FEF83ED73
S1130AC090E3215080409040E1F700C00000CDCF7A
S1130AD05058BB27AA270E9480050C94FA060E944E
S1130AE0EC0638F00E94F30620F039F49F3F19F425
S1130AF026F40C94E9060EF4E095E7FB0C94E30667
S1130B00E92F0E940B0758F3BA176207730784078B
S1130B10950720F079F4A6F50C942D070EF4E095D2
S1130B200B2EBA2FA02D0B01B90190010C01CA01A3
S1130B30A0011124FF27591B99F0593F50F4503E4E
S1130B4068F11A16F040A22F232F342F4427585F40
S1130B50F3CF469537952795A795F0405395C9F758
S1130B607EF41F16BA0B620B730B840BBAF0915010
S1130B70A1F0FF0FBB1F661F771F881FC2F70EC0AF
S1130B80BA0F621F731F841F48F487957795679582
S1130B90B795F7959E3F08F0B0CF9395880F08F06E
S1130BA09927EE0F9795879508950E94BF0608F43C
S1130BB081E008950E94EE050C94FA060E94F30663
S1130BC058F00E94EC0640F029F45F3F29F00C94A1
S1130BD0E30651110C942E070C94E9060E940B07AE
S1130BE068F39923B1F3552391F3951B550BBB2758
S1130BF0AA2762177307840738F09F5F5F4F220F9D
S1130C00331F441FAA1FA9F335D00E2E3AF0E0E893
S1130C1032D091505040E695001CCAF72BD0FE2FDD
S1130C2029D0660F771F881FBB1F26173707480771
S1130C30AB07B0E809F0BB0B802DBF01FF27935829
S1130C405F4F3AF09E3F510578F00C94E3060C9404
S1130C502E075F3FE4F3983ED4F386957795679526
S1130C60B795F7959F5FC9F7880F911D969587955E
S1130C7097F90895E1E0660F771F881FBB1F62177D
S1130C8073078407BA0720F0621B730B840BBA0B3B
S1130C90EE1F88F7E09508950E9453066894B111F9
S1130CA00C942E0708950E94130788F09F5798F01C
S1130CB0B92F9927B751B0F0E1F0660F771F881F5D
S1130CC0991F1AF0BA95C9F714C0B13091F00E9477
S1130CD02D07B1E008950C942D07672F782F8827EE
S1130CE0B85F39F0B93FCCF3869577956795B3959E
S1130CF0D9F73EF490958095709561957F4F8F4F0D
S1130D009F4F0895E89409C097FB3EF49095809511
S1130D10709561957F4F8F4F9F4F9923A9F0F92FBD
S1130D2096E9BB279395F695879577956795B7953B
S1130D30F111F8CFFAF4BB0F11F460FF1BC06F5F21
S1130D407F4F8F4F9F4F16C0882311F096E911C033
S1130D50772321F09EE8872F762F05C0662371F054
S1130D6096E8862F70E060E02AF09A95660F771F68
S1130D70881FDAF7880F9695879597F90895990F44
S1130D800008550FAA0BE0E8FEEF16161706E80751
S1130D90F907C0F012161306E407F50798F0621B72
S1130DA0730B840B950B39F40A2661F0232B242B47
S1130DB0252B21F408950A2609F4A140A6958FEF66
S1130DC0811D811D089597F99F6780E870E060E0B8
S1130DD008959FEF80EC089500240A9416161706D0
S1130DE018060906089500240A9412161306140618
S1130DF005060895092E0394000C11F4882352F07B
S1130E00BB0F40F4BF2B11F460FF04C06F5F7F4F32
S1130E108F4F9F4F089557FD9058440F551F59F019
S1130E205F3F71F04795880F97FB991F61F09F3FD3
S1130E3079F087950895121613061406551FF2CFFC
S1130E404695F1DF08C0161617061806991FF1CF4C
S1130E5086957105610508940895E894BB27662773
S1130E607727CB0197F908950E9447070C94FA0657
S1130E700E94EC0638F00E94F30620F0952311F04E
S1130E800C94E3060C94E90611240C942E070E949A
S1130E900B0770F3959FC1F3950F50E0551F629FA8
S1130EA0F001729FBB27F00DB11D639FAA27F00DBF
S1130EB0B11DAA1F649F6627B00DA11D661F829FE6
S1130EC02227B00DA11D621F739FB00DA11D621FCB
S1130ED0839FA00D611D221F749F3327A00D611DE8
S1130EE0231F849F600D211D822F762F6A2F1124CA
S1130EF09F5750409AF0F1F088234AF0EE0FFF1FFD
S1130F00BB1F661F771F881F91505040A9F79E3F53
S1130F10510580F00C94E3060C942E075F3FE4F334
S1130F20983ED4F3869577956795B795F795E795A9
S1130F309F5FC1F7FE2B880F911D9695879597F9B2
S1130F400895A29FB001B39FC001A39F700D811D9E
S1130F501124911DB29F700D811D1124911D0895BE
S1070F60F894FFCF2F
S1130F6454454D503A00507265733A00430020686A
S1070F7450610000C4
S9030000FC
