:100000000C9434000C9440000C943E000C943E0080
:100010000C943E000C943E000C943E000C943E0068
:100020000C943E000C943E000C943E000C943E0058
:100030000C943E000C943E000C943E000C943E0048
:100040000C943E000C943E000C943E000C943E0038
:100050000C943E000C943E000C943E000C943E0028
:100060000C943E000C943E0011241FBECFEFD8E04C
:10007000DEBFCDBF0E945D000C9480000C94000098
:100080001F920F920FB60F9211242F938F939F936D
:1000900095B180E2892785B92FEF83E294EF215053
:1000A00080409040E1F700C000009F918F912F9118
:1000B0000F900FBE0F901F9018958AB18B7F8AB951
:1000C00084B1806284B984B1806184B98BB1846069
:1000D0008BB98DB381608DBBE9E6F0E080818260F1
:1000E0008083789495B180E1892785B92FEF87EADD
:1000F00091E6215080409040E1F700C00000F2CF2F
:04010000F894FFCFA1
:00000001FF
