:100000000C9434000C9446000C9446000C9446006A
:100010000C9446000C9446000C9446000C94460048
:100020000C9446000C9446000C9446000C94460038
:100030000C9446000C9446000C9448000C94460026
:100040000C9446000C9446000C9446000C94460018
:100050000C9446000C9446000C9446000C94460008
:100060000C9446000C94460011241FBECFEFD8E03C
:10007000DEBFCDBF21E0A0E0B1E001C01D92A23003
:10008000B207E1F70E9470000C9482000C9400000B
:100090001F920F920FB60F9211242F938F939F935D
:1000A0008091000190910101813D934040F095B114
:1000B00080E2892785B91092010110920001809198
:1000C000000190910101019690930101809300013C
:1000D0009F918F912F910F900FBE0F901F901895A9
:1000E00084B1806284B984B5826084BD8FEF87BD9E
:1000F00085B5836085BDEEE6F0E080818260808317
:080100007894FFCFF894FFCFC3
:00000001FF
