S01800005350495F554152542050726F6772616D2E737265638D
S11300000C9434000C9449000C9449000C9449005D
S11300100C9449000C9449000C9449000C94490038
S11300200C9449000C9449000C9449000C94490028
S11300300C9449000C9449000C9449000C94490018
S11300400C9449000C9449000C9449000C94490008
S11300500C9449000C9449000C9449000C944900F8
S11300600C9449000C94490011241FBECFEFD8E032
S1130070DEBFCDBF11E0A0E0B1E0E6EEF1E002C0EA
S113008005900D92A431B107D9F70E944B000C944E
S1130090F1000C94000084B18C6284B984B18F7E29
S11300A084B985B1846085B98AB188608AB981E5EB
S11300B08CBD2FEF81EE94E0215080409040E1F719
S11300C000C0000085B18B7F85B980ED8EBD0DB475
S11300D007FEFDCF8EB51EBC0DB407FEFDCFCEB519
S11300E085B1846085B92FEF81EE94E02150804082
S11300F09040E1F700C000000E949400C83521F44C
S11301008BB188608BB903C08BB1877F8BB98C2F7F
S11301100E94B4002FEF83ED90E321508040904083
S1130120E1F700C00000EACF1092C50087E6809393
S1130130C40088E08093C10086E08093C2000895E3
S11301409091C00095FFFCCF8093C6000895CF9393
S1130150DF93EC0103C021960E94A00088818111E5
S1130160FACFDF91CF910895CF93DF93CDB7DEB768
S113017066970FB6F894DEBF0FBECDBF91E1E3E002
S1130180F1E0DE01119601900D929A95E1F7982F16
S113019092959F70E1E0F0E0EC0FFD1FE90FF11D77
S11301A090819A8B8F70E1E0F0E0EC0FFD1FE80F77
S11301B0F11D80818B8B8DE08C8B8AE08D8B1E8A68
S11301C080E091E00E94A700CE0142960E94A70021
S11301D066960FB6F894DEBF0FBECDBFDF91CF9108
S10901E00895F894FFCF1E
S11301E6307800303132333435363738394142438A
S10701F64445460032
S9030000FC
