:100000000C9434000C943E000C943E000C943E0082
:100010000C943E000C943E000C943E000C943E0068
:100020000C943E000C943E000C943E000C943E0058
:100030000C943E000C943E000C943E000C943E0048
:100040000C943E000C943E000C943E000C943E0038
:100050000C943E000C943E000C943E000C943E0028
:100060000C943E000C943E0011241FBECFEFD8E04C
:10007000DEBFCDBF0E9471000C9480000C94000084
:1000800085B1806185B985B18F7D85B92AEA34ED66
:100090008CE191E02150304080409040D9F7000041
:1000A000089585B1806285B985B18F7E85B92FEFBE
:1000B0008FE493EC215080409040E1F700C00000B5
:1000C000089585B18F7E85B985B18F7D85B92FEF74
:1000D00087EA91E6215080409040E1F700C000009F
:1000E000089584B1806184B984B1806284B90E942A
:1000F00040000E9461000E9451000E946100F7CF01
:04010000F894FFCFA1
:00000001FF
