S018000066616465204C45442050726F6772616D2E737265638F
S11300000C9434000C943E000C943E000C943E007E
S11300100C943E000C943E000C943E000C943E0064
S11300200C943E000C943E000C943E000C943E0054
S11300300C943E000C943E000C943E000C943E0044
S11300400C943E000C943E000C943E000C943E0034
S11300500C943E000C943E000C943E000C943E0024
S11300600C943E000C943E0011241FBECFEFD8E048
S1130070DEBFCDBF0E9440000C9464000C940000CD
S11300808AB180648AB984B5816084BD84B5826094
S113009084BD84B5806884BD85B5816085BD85B522
S11300A0826085BD88EC87BD80E00BC087BD2FEFE3
S11300B039EF90E0215030409040E1F700C000005B
S10F00C08F5F8F3F99F7F0CFF894FFCFCB
S9030000FC
