S026000074696D6572305F70726F6772616D20285052455343414C522031303234292E73726563A2
S11300000C9434000C943E000C943E000C943E007E
S11300100C943E000C943E000C943E000C943E0064
S11300200C943E000C943E000C943E000C943E0054
S11300300C943E000C943E000C943E000C943E0044
S11300400C943E000C943E000C943E000C943E0034
S11300500C943E000C943E000C943E000C943E0024
S11300600C943E000C943E0011241FBECFEFD8E048
S1130070DEBFCDBF0E9453000C945D000C940000C1
S113008020E030E00CC016BC14BC85B5856085BD8D
S113009085B3816085BBA89BFECF2F5F3F4F2D3377
S11300A0310588F3089584B1806284B995B180E202
S11100B0892785B90E944000F9CFF894FFCF4C
S9030000FC
